:100000000C9439030C9480030C9480030C948003AB
:100010000C9480030C9480030C9480030C94800354
:100020000C9480030C9480030C9487210C9443213E
:100030000C9427280C9480030C9480030C94800368
:100040000C9480030C9480030C9480030C94800324
:100050000C9480030C9403280C9480030C9480036C
:100060000C9480030C9480030C9480030C94800304
:100070000C9480030C9480030C9480030C948003F4
:100080000C9480030C9480030C9480030C948003E4
:100090000C9480030C9480030C9480030C948003D4
:1000A0000C9480030C9480030C94800305010902D6
:1000B000A10185020901A1000509190129081500FE
:1000C0002501950875018102050109300931158165
:1000D000257F95027508810609381581257F9501D0
:1000E00075088106050C0A38021581257F95017572
:1000F000088106C0C00660FF0961A1010962150000
:1001000026FF009520750881020963150026FF006F
:10011000952075089102C005010906A1010507197E
:10012000E029E71500250195087501810295017503
:100130000881010507190029FF150026FF00950613
:1001400075088100050819012905950575019102B9
:10015000950175039101C000010101010101010137
:10016000010202020202020202020303030303036A
:100170000303040404040404040505050505060638
:1001800006060607070707070808080809090909F6
:100190000A0A0A0B0B0B0C0C0C0D0D0D0E0E0E0F9C
:1001A0000F0F10101111111212131314141515162C
:1001B000161717181819191A1A1B1B1C1D1D1E1E9D
:1001C0001F202021222223242425262627282929EE
:1001D0002A2B2C2D2D2E2F30313232333435363719
:1001E00038393A3B3C3D3E3F404142434445464717
:1001F00048494A4C4D4E4F50515354555658595AF0
:100200005B5D5E5F616264656668696B6C6D6F7093
:1002100072737577787A7B7D7E8082838587888A02
:100220008C8E8F91939596989A9C9EA0A2A3A5A739
:10023000A9ABADAFB1B3B5B7BABCBEC0C2C4C6C935
:10024000CBCDCFD1D4D6D8DBDDDFE2E4E7E9EBEEEE
:10025000F0F3F5F8FAFDFFFFAA7F5540222325268B
:1002600028292A2C2D2F3032333536383A3B3D3E63
:100270004042434547494A4C4E5051535557595AAD
:100280005C5E6062646668696B6D6F7173757779C7
:100290007B7D7F81838587898A8C8E9092949698C6
:1002A0009A9C9E9FA1A3A5A7A8AAACAEAFB1B3B4D8
:1002B000B6B8B9BBBCBEBFC1C2C3C5C6C7C9CACB2D
:1002C000CCCDCED0D1D2D2D3D4D5D6D7D7D8D9D9F8
:1002D000DADADBDBDBDCDCDCDCDCDDDDDDDDDCDC61
:1002E000DCDCDCDBDBDBDADAD9D9D8D7D7D6D5D47E
:1002F000D3D2D2D1D0CECDCCCBCAC9C7C6C5C3C24A
:10030000C1BFBEBCBBB9B8B6B4B3B1AFAEACAAA89E
:10031000A7A5A3A19F9E9C9A98969492908E8C8A52
:1003200089878583817F7D7B79777573716F6D6B2D
:100330006968666462605E5C5A5957555351504E05
:100340004C4A4947454342403E3D3B3A38363533B7
:1003500032302F2D2C2A29282625232229001A0065
:1003600015001C000C001300F4002B0016000900FF
:100370000B000E003300F600E1001B001900110015
:1003800036003800F500E000E2008B412800500004
:1003900052000000E3002A002C008A4251004F0066
:1003A00000001D0006000500100037002D000000B1
:1003B000040007000A000D000F00240200001400D2
:1003C00008001700180012002A00000029002F0062
:1003D00021022E0034022602F7002B00000000004C
:1003E000300230003400F600E1002E0289022D02B6
:1003F00036023802F800E000E2008B41280050008D
:1004000052000000E3002A002C00035851004F0066
:1004100000002F028700000033023702870200002D
:10042000000000000000310231001F0200001E0227
:1004300020022202230225022A00000029001F00B8
:100440002100230025002700F4002B003B003D0085
:10045000650087023402F600E100400042005000CF
:100460004F003800F500E000E2000358280050007B
:1004700052000000E3002A002C00010051004F0050
:1004800000003F0041004300510037002D000000F4
:100490003A003C003E0052002D02330200001E00D4
:1004A00020002200240026002A0000000000000096
:1004B0000000C25C0000000000000000000000001E
:1004C000C35CC75C00000000000000000000C45CCA
:1004D000C85C0000000000000000000000000000F8
:1004E000000000000000000000000100000000000B
:1004F0000000000000000000C65CCA5C00000000B4
:10050000000000000000C55CC95C000000000000A5
:1005100000000000000000000000000000000000DB
:1005200000000000000000000000000000000000CB
:1005300000000000000000000000000000000000BB
:100540007E0F00D4FFFFFFC700000078000000000E
:10055000000000002A2B280000000000000000001E
:100560000000000000000029000000002C1E3420C4
:10057000212224342627252E362D3738271E1F20EA
:100580002122232425263333362E37381F0405062F
:100590000708090A0B0C0D0E0F1011121314151673
:1005A0001718191A1B1C1D2F3130232D3504050671
:1005B0000708090A0B0C0D0E0F1011121314151653
:1005C0001718191A1B1C1D2F3130354C1E0F050032
:1005D000047F3F1F643214643214783C1E1E140AD8
:1005E0000509025B00030100A0FA090400000103F1
:1005F00001010009211101000122400007058103CA
:1006000008000A0904010002030000000921110189
:1006100000012222000705820320000107050303D1
:10062000200001090402000103000000092111015A
:1006300000012249000705840320000A120110016D
:1006400000000008EDFE000001000102000110039F
:1006500063006F0063006F0074003500310000001C
:100660000C0361006B0069003200370000000403D6
:10067000090411241FBECFEFDAE0DEBFCDBF04B600
:1006800003FE27C08091AB029091AC02A091AD0215
:10069000B091AE028730904BA740B04BD1F410928E
:1006A000AB021092AC021092AD021092AE0214BED8
:1006B00084B7877F84BF0FB6F894A89580916000B7
:1006C000886180936000109260000FBEE0E0F8E364
:1006D000099522E0A6E6B1E001C01D92AB3AB2074F
:1006E000E1F711E0A0E0B1E0EEE2F7E502C005902D
:1006F0000D92A636B107D9F70E945E220C945E2BAC
:100700000C940000E8EDF0E080818E7F80831092F1
:10071000E2001092DA001092E100A0EEB0E08C91BD
:1007200081608C9380818F77808319BCA7EDB0E0C6
:100730008C918E7F8C9380818F7E808310928D022E
:1007400008952091E4003091E50095E6A9012091FB
:10075000EC00822F817020FF06C08091E80080FFAE
:1007600006C080E008952091E80022FD1AC0809123
:100770009A02882389F0853089F08091EB0085FD0D
:100780000FC02091E4003091E50042175307F9F2C1
:100790009150E1F684E0089582E0089583E00895A1
:1007A00081E00895EF92FF920F931F93CF937C0106
:1007B0008B010E94A103C82F811117C08091E8000E
:1007C00085FD0BC08091E8008E778093E8000E9441
:1007D000A103882399F3C82F08C0F70181917F01F5
:1007E0008093F1000150110949F78C2FCF911F918F
:1007F0000F91FF90EF90089580919C0287FF13C0A6
:100800008091E80082FF06C08091E8008B7780939A
:10081000E80004C080919A028111F2CF089580917E
:100820009A028823D9F38091E80080FFF8CF809165
:10083000E8008E77ECCF982F9093E900242F762F45
:1008400050E0891731F07091EC002091ED0050914B
:10085000F00021FD07C09F5F973071F78093E9009A
:1008600081E008953091EB003E7F3093EB003091B2
:10087000ED003D7F3093ED003091EB00316030931F
:10088000EB007093EC002093ED005093F00020916A
:10089000EE0027FDE0CF80E00895CF92DF92EF9247
:1008A000FF920F931F93CF93DF93C8EDD0E0888121
:1008B0008F7E8883E7EDF0E080818160808384E033
:1008C00082BF81E080938D0288818E7F888302EED3
:1008D00010E0F80110821092DA0081EEC82ED12CBF
:1008E000F601108288818F77888388818068888369
:1008F00088818F7D888319BC10929A0210929B0286
:10090000109299021092980290EEE92EF12CF701C4
:1009100080818B7F808388818160888342E060E072
:1009200080E00E941B04F60180818E7F8083F801A5
:10093000808181608083808188608083F7018081ED
:100940008E7F8083888180618883DF91CF911F9122
:100950000F91FF90EF90DF90CF900895FC01809170
:10096000A2029091A30286179707A0F06115710566
:1009700029F49091E8009E779093E80090E061154B
:10098000710551F4911108C08091E80082FF34C0D4
:1009900080E00895BC01F2CF80919A028823C1F1D2
:1009A0008530C1F18091E80083FD30C08091E8007E
:1009B00082FDEACF8091E80080FFE1CF8091F300D3
:1009C0002091F200382F6115710519F0283031059A
:1009D00058F091E02830310509F090E02091E800CE
:1009E0002E772093E800CBCF81918093F100615066
:1009F00071092F5F3F4FE7CF80919A02882341F022
:100A0000853041F08091E80083FFBECF81E00895FA
:100A100082E0089583E00895089580E008950895A0
:100A2000089580918F02089587E797E790930108D2
:100A30008093000888E19AE00FB6F894A895809317
:100A400060000FBE90936000FFCF9C014FB7F894F9
:100A50008091890290918A02A0918B02B0918C02C0
:100A60004FBF821B930B08952FB7F8948091890292
:100A700090918A02A0918B02B0918C022FBF0895B1
:100A80009C01FC0132969FEF80E04191461751F0A6
:100A90009F3F19F4411101C0982F8F5F8630A9F74D
:100AA0009F3F09F40895290F311D97FD3A95F901EB
:100AB0006283089580913F02811110923F02089550
:100AC00080913E0290913D02892B90913C02892BAE
:100AD0008093680190913F02992391F0892B809334
:100AE000680120E08AE691E0FC013191CF013111EB
:100AF0002F5FF1E080379F07B9F721110E945A0557
:100B0000E0914F02F0915002309731F00280F38172
:100B1000E02D88E691E00994089527E0929F800DEA
:100B20001124982F977086958695869525E0829F4B
:100B3000F0011124E85EFD4F50E040E080E021919B
:100B400030E0092E02C0369527950A94E2F721700D
:100B50003327042E01C0220F0A94EAF7822B4F5F3D
:100B60005F4F4530510559F7089527E0929F800D5A
:100B70001124982F977041E001C0440F9A95EAF72D
:100B800086958695869595E0899FF0011124E85E0B
:100B9000FD4F90E080E070E05191DF0111979B01E3
:100BA000082E02C0369527950A94E2F72170219508
:100BB0002527242325272C9301968530910561F75D
:100BC0000895809117029091E601981301C008954D
:100BD0008F5F8770FACF882341F0809590913E0215
:100BE000892380933E020C9460050895882339F090
:100BF00090913E02982B90933E020C9460050895CC
:100C0000E0914F02F0915002309739F022E0DC0180
:100C10002C930480F581E02D09940895E0914F0212
:100C2000F0915002309721F00190F081E02D09946D
:100C300080E00895FA01811101C0FB0109948091BF
:100C40007C02982F9E7F61F48170826080937C0289
:100C500080917F02893718F088E780937F0208959A
:100C60008635B0F381708465F1CFAF92BF92DF9289
:100C7000EF92FF920F931F93CF93DF93182F062FBE
:100C8000E901493708F048E7E42FF0E0E95AFE4F60
:100C9000011110C0E4915E2F4E2F4983E8835A83DF
:100CA000DF91CF911F910F91FF90EF90DF90BF9058
:100CB000AF900895202F30E04491D42EE42EF12CF3
:100CC00056E0159FC0011124EFEFF0E0BF010E9434
:100CD0006828812F90E0880F991F55E5569FD00115
:100CE000579FB00D11248A1B9B0B982F990F890FCA
:100CF0005F01A21AB30AAE9CD001AF9CB00DBE9C9E
:100D0000B00D11245B2F089F80011124012F1127A2
:100D10005F01A01AB10AAE9C8001AF9C100DBE9C71
:100D2000100D11245F01A81AB108A29EC001A39E54
:100D3000900DB29E900D1124892F9927E81BF90B75
:100D4000EE9DC001EF9D900DFE9D900D1124E92FA9
:100D500062307105A1F050F46115710509F49DCF61
:100D60006130710581F0EB2F512F97CF6430710501
:100D700069F080F06630710509F48FCFF4CFE42F6D
:100D80004B2F592F8ACFE42F412F87CFEB2F542F92
:100D9000492F83CF4B2F5D2DE12F7FCFCF93DF9353
:100DA00000D000D000D0CDB7DEB749835A836B8323
:100DB0007C838D839E8386E0FE013196AAE6B2E0B5
:100DC00001900D928A95E1F726960FB6F894DEBF52
:100DD0000FBECDBFDF91CF910895CF93DF9300D0A9
:100DE00000D000D0CDB7DEB786E0EAE6F2E0DE0163
:100DF000119601900D928A95E1F729813A814B81F4
:100E00005C816D817E8180E090E026960FB6F8943B
:100E1000DEBF0FBECDBFDF91CF9108950E94340594
:100E20009C019091600280916102982B21F0309397
:100E30005D0220935C029091620280916302982B84
:100E400021F030935A02209359028EE592E00C94DF
:100E5000000610923D0210923C020E94600586E05E
:100E6000EEE5F2E0DF011D928A95E9F710925B0250
:100E7000109258021092DF010C940E07609340020A
:100E80007093410280934202909343020C9429078D
:100E900040916002803F59F48091610287FF0DC04C
:100EA0001092610241110BC010925B0208C0813F99
:100EB00081F48091610218169CF3442381F08091A3
:100EC000620290916302892B09F05AC01092580275
:100ED0000895823F49F447FFF0CF1092600280915D
:100EE00061028111ECCFE0CF833F19F41416ACF30B
:100EF000E4CF90916202893F29F41916F4F610921A
:100F00006202DBCF8A3F19F497FFD7CFF8CF9091D9
:100F100063028B3F29F497FFD0CF10926302CDCFAD
:100F20008C3F19F41916CCF3C8CF9CE0980F95307C
:100F300090F4845F990B21E030E0B90102C0660FA4
:100F4000771F8A95E2F7CB01809590915F02892304
:100F500080935F02B2CF8D3F31F48091DF018E7FAD
:100F60008093DF01AACF8E3F21F48091DF018D7F36
:100F7000F7CF8F3F09F0A1CF8091DF018B7FF0CFBA
:100F80000895882309F460C09CEF980F913A78F493
:100F9000EAE6F1E020E731E09191891303C0DF0137
:100FA00011971C922E173F07B9F70C94600590E239
:100FB000980F983088F4877021E030E0A90102C0D2
:100FC000440F551F8A95E2F7CA01809590913E0221
:100FD000892380933E02E9CF9BE5980F9330B0F4CC
:100FE0008091DB019091DC01892B71F11092DC0181
:100FF0001092DB01E0914F02F0915002309721F105
:101000000680F781E02D90E080E0099498E5980F44
:101010009731A0F48091DD019091DE01892BA1F040
:101020001092DE011092DD01E0914F02F09150022A
:10103000309751F00084F185E02DE5CF803F20F01E
:101040000E9448070C940E0708958091DF0180FDEF
:1010500016C081FD16C082FD16C0809158028823FB
:10106000A1F0883280F428E0829FC001112468E258
:1010700070E00E947C28862F672B39F0089582E06B
:10108000089584E0089588E0089581E008958091AE
:10109000DF0180FD14C081FD14C082FD16C0809167
:1010A0005B02882381F0843180F422E3829FC001B7
:1010B000112464E170E00E947C28862F08958CE062
:1010C000089589E1089585E0089582E30895803FB9
:1010D00031F40E9447088195809361020895813F11
:1010E00019F40E944708F8CF823F31F40E94470864
:1010F0008195809360020895833F19F40E94470808
:10110000F8CF893F29F40E94250880936202089550
:101110008A3F21F40E9425088195F7CF8B3F31F457
:101120000E94250881958093630208958C3F19F4ED
:101130000E942508F8CF9CE0980F953070F4845FEA
:10114000990B21E030E001C0220F8A95EAF78091E7
:101150005F02822B80935F0208958D3F31F480916E
:10116000DF0181608093DF0108958E3F21F480913B
:10117000DF018260F7CF8F3FB9F78091DF01846094
:10118000F1CFCF93C82F8823E1F18CEF8C0F813AF8
:10119000F8F4EAE6F1E0DF018D91C81761F081E033
:1011A000A037B807C9F76C2F88E691E00E94400588
:1011B000CF910C9460058191C81303C0DF01119792
:1011C0001C9281E0E037F807B1F70E946005EBCF91
:1011D00080E28C0F883068F4C77021E030E001C0F5
:1011E000220FCA95EAF780913E02822B80933E023D
:1011F000DFCFC03F30F08C2F0E946708CF910C9456
:101200000E07CF910895F894E82FE295EF70F0E083
:1012100031A1282F2F7081E090E001C0880F2A951E
:10122000EAF7982F9095932391A392A1892B82A3FB
:10123000789408959091440292FF06C0282F287157
:101240002830F9F4877F846093FF06C0282F287127
:101250002831F1F4877E84612091450220FF06C089
:10126000382F38713830D9F4877F816021FF06C06C
:10127000282F28712831D1F4877E816194FD877EE3
:101280000895282F24712430F9F68B7F8860DCCFF5
:10129000282F2471243101F78B7E8861DDCF382F10
:1012A0003171313019F78E7F8860E0CF282F21719E
:1012B000213121F78E7E8861E1CFCF92DF92EF92CC
:1012C000FF920F931F938B019C01A901662777273B
:1012D00080E1411551056105710519F4B901A801B5
:1012E00080E0C52ED62EE72EFF24C114D104E104E0
:1012F000F10419F0885FB701A6016A017B01F4E0EF
:10130000F694E794D794C794FA95D1F7C114D10411
:10131000E104F10419F08C5FB701A6016A017B01B9
:10132000E2E0F694E794D794C794EA95D1F7C11414
:10133000D104E104F10419F08E5FB701A60176959E
:10134000679557954795452B462B472B09F08F5F9F
:10135000813011F0823061F481E08093D901C901BC
:10136000B8011F910F91FF90EF90DF90CF900895FB
:101370001092D901F4CF0E945D096093A702709387
:10138000A8028093A9029093AA020C9429070F93B4
:101390001F936091A7027091A8028091A902909179
:1013A000AA028B019C0106701127222733270630E1
:1013B00011052105310529F468601F910F910C94E6
:1013C000BB09677FFACF0F931F9341E050E060E0C5
:1013D00070E004C0440F551F661F771F8A95D2F72F
:1013E000CB01BA0160957095809590950091A70208
:1013F0001091A8022091A9023091AA0260237123C2
:10140000822393231F910F910C94BB0990913B026F
:101410008095892380933B02282F277039F4282F49
:10142000082E000C330B9217130621F490914502FD
:1014300092FF07C08595859585950E94E3091092D6
:101440003B0208950F931F9341E050E060E070E08D
:1014500004C0440F551F661F771F8A95D2F78091ED
:10146000A7029091A802A091A902B091AA028A01B4
:101470009B01082B192B2A2B3B2BC901B8011F916B
:101480000F910C94BB09CF9384E090E00E94152942
:10149000C82F82E290E00E941529982F8C2FCF91BF
:1014A00008950F931F93CF93DF93C42FD0E0CC0FF9
:1014B000DD1F2EE0629FC00DD11D112430E7839FF8
:1014C000C00DD11D1124CE0187960E941529082F29
:1014D00010E0102F0027CE0188960E941529980150
:1014E000282BC901DF91CF911F910F910895462FAD
:1014F000843038F4783028F4673018F4672F0C946F
:10150000510A90E080E00895CF93DF930E94770A1C
:10151000EC018238910589F1B8F58133910509F420
:1015200092C028F58932910509F486C08A9709F49A
:1015300091C0C11522E5D20708F0AAC0C11531E556
:10154000D30708F014C1CF3FD10511F008F090C0C7
:10155000C03FD10508F0E9C0C53AD10508F081C007
:10156000C430D105F8F4C130D105E1F040C0853375
:10157000910509F45AC0C997E1F68091440283703D
:1015800089F0C0EED0E00EC0833E910599F170F471
:10159000803E910501F1823E910559F68091440209
:1015A00082FD21C0CE01DF91CF910895863E910545
:1015B00061F1873E910571F1843E910509F0B9CF43
:1015C0008091450281FFEECF80914402C7EED0E0CA
:1015D00084FD0DC0E7CF8091440280FDF9C0909159
:1015E000450290FFDFCFC3EED0E084FFDBCFD0E039
:1015F000C0E0D8CF8091440282FDEDC090914502B9
:1016000090FDBFCF84FFCECFF2CF8091440283FD07
:10161000DDCFC8CF8091440283FDE0C090914502A8
:1016200091FFF0CFC4EED0E0BDCF8091440285FFA2
:10163000B9CFC9E2D0E0B6CF8091440285FFB2CFE6
:10164000C5E3D0E0AFCF8091440286FFABCFCAE2C2
:10165000D0E0A8CF8091440286FFA4CFC1E3D0E0C0
:10166000A1CFCE01805E9109089708F49BCFBFCF30
:10167000C11540E5D40708F05DC0C11580E4D80766
:1016800008F055C0C11590E2D90708F48BCFAFCF51
:10169000C11526E5D20718F5C11535E5D30708F0C1
:1016A0007EC0C11544E5D40708F074C09C2F969500
:1016B00096959E0123703327C115D34508F45CC06D
:1016C000C1E0D0E002C0CC0FDD1F2A95E2F730E286
:1016D000939FC0011124C82BD92BDA6863CFC115A1
:1016E0009AE5D90778F4C11529E5D20708F062C058
:1016F000C11538E5D30708F47ACFDC2FCC27C06FAB
:10170000D06A50CFCE0190568115904208F06FCF2D
:101710008D2F8F710E941A0990E0982F88278827B3
:101720009F719C012C2BE90143C0D0653BCFDF703A
:10173000D06A38CFCE01E4E096958795EA95E1F737
:1017400083702C2F26952695237090E2299F900177
:101750001124382B8C2F8370C1E0D0E002C0CC0F55
:10176000DD1F8A95E2F7C22BD32BDC681BCFDC2F61
:10177000CC27C16FD06A16CFC1E0D0E002C0CC0F39
:10178000DD1F2A95E2F720E2929FC0011124C82BA9
:10179000D92BEBCFDC2FCC27C46FD06A03CF8C2F93
:1017A0000E941A09C82FD0E0DC2FCC27CC27DF718C
:1017B000D062F8CE8C2F8F700E941A0934E0D69533
:1017C000C7953A95E1F7CF709C2FEC01D069EACE2E
:1017D000C9E3D0E0E7CEC2EED0E0E4CEC6EED0E082
:1017E000E1CEBF92CF92DF92EF92FF920F931F93C1
:1017F000CF93DF938C01C090A702D090A802E09015
:10180000A902F090AA028091400290914102A09119
:101810004202B0914302C82AD92AEA2AFB2ACFE120
:10182000D0E0BC2ED701C6010C2E04C0B695A795FA
:10183000979587950A94D2F780FD0EC0219788F777
:10184000B12C8B2DDF91CF911F910F91FF90EF90D5
:10185000DF90CF90BF900895B8018C2F0E94840A2A
:10186000019761F3EECFCF93DF93EC010E94F10B70
:10187000BE01DF91CF910C94840A0E94330C292F72
:101880002F7092959F7092509E3078F4E92FF0E07F
:10189000E05AF44D0C949028803F19F020F4883ED3
:1018A00020F481E00895843FE1F380E00895883ECC
:1018B000C0F3813FD1F7F5CF822F86958695869527
:1018C00008956F927F928F929F92AF92BF92CF9224
:1018D000DF92EF92FF920F931F93CF93DF938CE5EC
:1018E000C82E83E0D82E95EAE92EF12CE701C057E7
:1018F000D10936011BC0F50185909490692DC8016E
:101900000E942929682DC80101960E94292982E098
:10191000A80EB11C0E5F1F4FC017D10761F78EE0F4
:10192000680E711C2E96CE15DF0529F08E010E5023
:1019300011095301E0CF7E0180E7E80EF11C80E73A
:10194000C80ED11C85E6E81682E0F80679F6DF912C
:10195000CF911F910F91FF90EF90DF90CF90BF90AC
:10196000AF909F908F907F906F900895CF93C0918C
:101970004502C2FB992790F9981781F080FBC2F9C4
:10198000C09345026091440284E090E00E942929BE
:101990006C2F82E290E0CF910C942929CF91089589
:1019A000CF93DF93C7EED1E060E0CE010E942929FA
:1019B0002196C11584E0D807B9F7DF91CF9108953A
:1019C0009C0184E08093E9009FEF8091E8009150B2
:1019D00085FD06C085ED8A95F1F700009111F5CFE0
:1019E0008091E80085FF0CC050E040E066E070E0C8
:1019F000C9010E94D2038091E8008E778093E800AD
:101A00000895CF93DF93EC0181E08093E9008FEF9D
:101A10009091E800815095FD06C095ED9A95F1F7FB
:101A200000008111F5CF8091E80085FF14C050E0DF
:101A300040E068E070E0CE010E94D2038091E800AF
:101A40008E778093E80088E0FE01A0E9B2E0019083
:101A50000D928A95E1F7DF91CF9108951F93CF936F
:101A6000DF93182FD0E0C0E0893311F4C0E5D0E057
:101A7000812F0E94C108209731F4812FDF91CF91EF
:101A80001F910C94C1078FE99FE00197F1F700C007
:101A900000002197F0CF0F931F93CF93DF93C62FB2
:101AA000D42F022FFC0182818823A1F06093A6022B
:101AB0000E9434059093A5028093A402C77081E030
:101AC00001C0880FCA95EAF7DF91CF911F910F915E
:101AD0000C94F6058091A602681335C08091A4028B
:101AE0009091A5020E9425058436910560F510E2CB
:101AF0001D0FCD17B9F080E28C0F883040F4C7700D
:101B000081E001C0880FCA95EAF70E94EB05183002
:101B100048F481E09D2F977001C0880F9A95EAF7ED
:101B20000E94F605802F0E942E0D183098F4D77071
:101B300081E001C0880FDA95EAF7DF91CF911F911C
:101B40000F910C94EB05C77081E001C0880FCA9516
:101B5000EAF7F3CFDF91CF911F910F910895809114
:101B60007C0280FD0AC0E9E7F1E011821082128256
:101B7000339651E0ED39F507C1F7539A3BB1377F02
:101B80002BB128604FB7F89489E791E0FC0151919F
:101B9000CF0168E02BB9000000C057FF3BB9550FDB
:101BA000000000C000C000C03BB900C06A9591F7BA
:101BB000F1E08D399F0751F74FBF8FE594E0019712
:101BC000F1F700C000000895EF92FF921F93CF93AA
:101BD000DF93EC0189E7E82E81E0F82E10E08C819C
:101BE000970140917F0260917E02810F0E9435062D
:101BF0001B5E83E0E80EF11C1C3F89F70E94AF0DCD
:101C00009A818C8190FF08C08F5F8C83DF91CF9188
:101C10001F91FF90EF9008958150F7CFBF92CF9220
:101C2000DF92EF92FF920F931F93CF93DF93FC010C
:101C30008281DD24DA9480FD02C0DD24D39409E79B
:101C400011E0D0E0C0E02CE0B22EF8011182108249
:101C5000128294E0E92EF12CC12C809176018C0D3A
:101C60008D300CF43DC06B2D0E945A28892F082E10
:101C7000000C990B8C179D0791F480917F028E9D2B
:101C8000A0018F9D500D1124559547955595479569
:101C9000980160917E0280917D020E943506CD0CF4
:101CA000F1E0EF1AF108C9F621960D5F1F4FCC3015
:101CB000D10559F60E94AF0D8091760191E0D912BD
:101CC00015C0811111C08BE080937601DF91CF9117
:101CD0001F910F91FF90EF90DF90CF90BF900895EC
:101CE00087FFC5CF845FC3CF8150EECF90E00196D0
:101CF000BE010E947C28E8CF0F931F93CF93DF9300
:101D0000C9E7D1E0FE01118210821282339681E090
:101D1000ED39F807C1F710E000E080917701082E57
:101D2000000C990B081719078CF180911001082EEF
:101D3000000C990B801791074CF19E0140917F0296
:101D400060917E0280917D020E9435060F5F1F4FD9
:101D500023960C30110509F70E94AF0D80910F01F9
:101D600090917701980F9093770120911001280F9F
:101D700020931001121614F49B301CF0819580936F
:101D80000F01DF91CF911F910F9108951982188251
:101D90001A82DCCF8F929F92AF92BF92CF92DF9246
:101DA000EF92FF920F931F93CF93DF93EC014C813F
:101DB000042F10E09801D8010E94B1299B01AC01C9
:101DC0000E947C294B015C01E0E2F0E0E01BF10B9A
:101DD000A5E5B0E0AC019B010E947C296B017C0170
:101DE0009F01DF010E949D289B01AC010E94872971
:101DF0009B01AC01280D391D4A1D5B1DC701B601B1
:101E00000E948F29F22E822F90E039E23F15D8F1FF
:101E100043E0249F9001112435952795122F1095AA
:101E200099E7C92E91E0D92E00E085E5E82EEF185C
:101E30008E2D01FD8F2D9601412F60917E020E9413
:101E400035060F5F53E0C50ED11C0C3089F70E9498
:101E5000AF0D9C8181E0992319F0903219F48FEF36
:101E60008093110180911101890F8C83DF91CF91B3
:101E70001F910F91FF90EF90DF90CF90BF90AF90A8
:101E80009F908F90089525E530E0A901481B590BDC
:101E9000CA019A01220F331F280F391F37FFBCCF09
:101EA0002F5F3F4FB9CFEF92FF920F931F93CF93C6
:101EB000DF938C01C9E7D1E0F12CE12CF80194818A
:101EC00060917E0280917D02F6E0EF16F104FCF451
:101ED0009923F9F09E0140917F020E9435062FEF71
:101EE000E21AF20A23968CE0E816F10439F70E9410
:101EF000AF0DF801848190E0019681709927848369
:101F0000DF91CF911F910F91FF90EF90089599234A
:101F100009F39E0140E0E1CF90917C0290FF0CC05C
:101F2000E9E7F1E0818360834283339691E0ED3904
:101F3000F907C1F70C94AF0D08950F931F93CF933A
:101F4000DF9300D00F92CDB7DEB78C01809178017E
:101F500081110AC09E012F5F3F4F48E76FEF0E943B
:101F600035068A8180937801F8016481613069F0D7
:101F70008091780140E0662361F040E0623011F426
:101F80004091780180E060E004C06091780140E019
:101F900080E00E948C0FF801848190E0019663E05C
:101FA00070E00E947C2884830F900F900F90DF9147
:101FB000CF911F910F910895CF93DF9300D00F928F
:101FC000CDB7DEB790917C0290FF0AC09E012F5FD3
:101FD0003F4F0E9435064B8169818A810E948C0F98
:101FE0000F900F900F90DF91CF910895CF93DF93D3
:101FF000EC01EC81F0E0E45AFD4F4491ECE7F2E0B3
:10200000628181810E94DC0F8C818F5F8C83DF91E4
:10201000CF910895CF93DF93EC01ECE7F2E0438199
:1020200062818C810E94DC0F8C818F5F8C83DF91B9
:10203000CF9108954F925F926F927F928F929F926D
:10204000AF92BF92CF92DF92EF92FF920F931F93C6
:10205000CF93DF93CDB7DEB72A970FB6F894DEBFE4
:102060000FBECDBF08E411E086E4C82E82E0D82E72
:102070004601E12CAA24A394B12CD8018D918D01A5
:10208000F894E82FE295EF70F0E021A18F70A501A0
:1020900002C0440F551F8A95E2F7CA01922F982B70
:1020A00091A392A18095892382A3789400C0E0E552
:1020B000F1E030E020E0F12C4191A42FA295AF7027
:1020C000B0E090968C9190E04F7002C09595879506
:1020D0004A95E2F780FD44C08A2D022E01C0880F88
:1020E0000A94EAF7F82A2F5F3F4F2730310521F78E
:1020F000F801319780810E94030950EA5A95F1F75F
:10210000D4018C91F81671F1FC9281E0E82ABFEFBE
:102110008B1A9B0AE1E000351E0709F0AECFEE20D6
:1021200019F181E0809372010E943405909371014E
:102130008093700180917001909171010E9425053A
:102140000697B0F0E1E8F2E08EE492E0D6012D913E
:102150006D0121938A179B07C9F71092720108C07D
:1021600080E0C0CF80E0D2CF809172018111E2CFB8
:102170000E94ED0629833A834B835C836D837E83C3
:1021800080917401909175019C012F5F3F4F3093B6
:1021900075012093740162E370E00E947C28892B12
:1021A00009F0D2C019868FEF8A878F8388870FEF57
:1021B00022E030E0AE01495F5F4F62E070E0CE01A7
:1021C00009960E94AC118885803309F0A3C081E094
:1021D0008093730182E089871FEF1A871F83188716
:1021E0000FEF22E030E0AE01495F5F4F62E070E048
:1021F000CE0109960E94AC11D88483E089871A87A2
:102200001F83188722E030E0AE01495F5F4F62E034
:1022100070E0CE0109960E94AC11F88484E08987B1
:102220001A871F83188722E030E0AE01495F5F4FB5
:1022300062E070E0CE0109960E94AC116885062E1E
:10224000000C770B880B990B0E94652A4B015C01EF
:102250006F2D0F2C000C770B880B990B0E94652AB1
:1022600020E83BE746E05FE30E94F12A2B013C01B6
:1022700020ED34ED49E55FE3C501B4010E94F12A88
:102280009B01AC01C301B2010E94C1290E942D2A09
:10229000162FEF2DFF27E1950CF4F095BF01072EC7
:1022A000000C880B990B0E94652A20ED34ED49E55E
:1022B0005FE30E94F12A2B013C0120E83BE746E066
:1022C0005FE3C501B4010E94F12A9B01AC01C30187
:1022D000B2010E94C1290E942D2A262F8091D90186
:1022E0008823B9F1809174019091750165E070E0E7
:1022F0000E947C28892B19F421952D831E83D7FEFB
:102300000BC049815A816B817C818D819E810E94A5
:10231000CE0602C0109273018E2D2A960FB6F89445
:10232000DEBF0FBECDBFDF91CF911F910F91FF9008
:10233000EF90DF90CF90BF90AF909F908F907F9065
:102340006F905F904F90089580917301882321F3DF
:1023500041CF1B832C83D3CFCF93DF93FA0162301D
:10236000710519F42230310539F08FEF818381E056
:1023700090E0DF91CF910895499B33C0599A519ACB
:1023800047E050E05898EC01288130E0042E02C06C
:10239000359527950A94E2F720FF25C0599A589A57
:1023A0004150510978F72AE12A95F1F700C0519878
:1023B000599A118287E090E05898589A29B121FBE8
:1023C000AA27A0F9B0E0AD01082E01C0440F0A947D
:1023D000EAF72181242B2183019770F790E080E0B8
:1023E000C8CF5998CCCF5998DACF4F925F926F925D
:1023F0007F928F929F92AF92BF92CF92DF92EF9295
:10240000FF920F931F93CF93DF93FC016280448070
:1024100081E08483ECE5F2E07490EBEDF2E0E4918E
:10242000CDE9D1E039E7E32E31E0F32E49EDC42EBA
:1024300041E0D42E52E0A52EBB24B39488248A9484
:10244000912C55245A94E7190E2F10E082E086153E
:1024500030F080917D02888380917E0289834110D3
:1024600021C01B821A8297014A81698188810E945A
:102470003506259683E0E80EF11CCC16DD0631F713
:10248000DF91CF911F910F91FF90EF90DF90CF9050
:10249000BF90AF909F908F907F906F905F904F9084
:1024A0000C94AF0D8B818823E9F081508B83859D3F
:1024B000C00111246C8170E00E946828FB01FF2795
:1024C000E45AFD4F8491E82FE719E59DC0011124DE
:1024D000B8010E94682880917F02689FB001112492
:1024E0007A83C1CF0E94F82820917F022695215837
:1024F0002A9DA0012B9D500D1124452F552784178F
:1025000095070CF0B0CF82E0861588F40E94F82879
:10251000B4010E947C2888830E94F82820917E02C2
:102520002695622F70E00E947C28280F29831A824A
:1025300080917F02893C20F088EC8C838B8393CF41
:102540008431D8F784E1F9CF6AEE7EEF90E080E045
:102550000E94472960E082E090E00E94292960E023
:1025600083E090E00E9429291092400210924102DB
:10257000109242021092430260E084E090E00E94D8
:10258000292960E082E290E00E94292960E085E04C
:1025900090E00E94292960E086E090E00E942929CD
:1025A0006FEF87E090E00E94292940E050E0BA01F7
:1025B00088E090E00E943B2960E08DE090E00E947E
:1025C000292940E050E0BA0188E190E00E943B29CF
:1025D00060E087E190E00E94292940E050E0BA01E4
:1025E0008CE190E00E943B2970E060E080E290E0A6
:1025F0000E94472940E050E0BA0188E190E00E9443
:102600003B2940E050E0BA018FE090E00E943B2976
:1026100040E050E0BA0183E190E00C943B29CF9276
:10262000DF92EF92FF926B017C010E941F06B701BF
:10263000A60188E090E0FF90EF90DF90CF900C949F
:102640003B295F926F927F928F929F92AF92BF923F
:10265000CF92DF92EF92FF920F931F93CF93DF936E
:1026600000D00F92CDB7DEB7182F762E042F622E32
:1026700090917C0290FF29C0E92FE695AE2FB0E043
:10268000A35EBE4F8C9180937A029E7F923081F53B
:102690009E012F5F3F4F812F0E9435064B8169813C
:1026A0008A810E948C0F10937D0270927E020093AB
:1026B0007F02662051F060917C0270917D028091D2
:1026C0007E0290917F020E940F130F900F900F9047
:1026D000DF91CF911F910F91FF90EF90DF90CF90FE
:1026E000BF90AF909F908F907F906F905F90089574
:1026F000823019F400917F02D6CF863019F4109100
:102700007D02D1CF8930D9F3893169F6E9518E2F15
:102710008170582EE695F0E0E95AFD4FA590B490EF
:10272000BB2489E7E82E81E0F82ED12CC12C9CE057
:10273000892E912CC601B4010E946828812F511066
:1027400013C0860F9701402F672D0E943506CA0CD3
:10275000DB1C83E0E80EF11C8DE9E81681E0F80649
:1027600049F70E94AF0D9FCF861BECCFECE7F2E05C
:10277000438121E1421B08F440E021E06281818134
:102780000C942113ECE7F2E0438121E1420F08F4BD
:102790004FEF21E0628181810C942113ECE7F2E09C
:1027A000628121E1621B08F460E021E043818181C4
:1027B0000C942113ECE7F2E0628121E1620F08F44E
:1027C0006FEF21E0438181810C942113ECE7F2E06B
:1027D000818121E0438162818A500C942113ECE7CE
:1027E000F2E0818121E043816281865F0C942113B4
:1027F00080918002882319F081508093800260913B
:102800007C0270917D0280917E0290917F020C94F7
:102810000F1380918002833018F48F5F80938002C1
:1028200060917C0270917D0280917E0290917F0286
:102830000C940F13ECE7F2E083E0808311828FEFBA
:10284000828388E78383148260817181828193818E
:102850000C940F1310923E02EAE6F1E086E0DF01ED
:102860001D928A95E9F70C9429071F93CF93DF9364
:10287000CDB7DEB7AA970FB6F894DEBF0FBECDBFB7
:102880008CE992E02091F100DC012D93CD01B2E0C2
:10289000843A9B07B9F780919D02833009F471C097
:1028A000B8F4813009F448C0823009F4B2C0809194
:1028B000E80083FF3AC180919C0290919D029A307A
:1028C00008F033C1E92FF0E0E259F44D0C94902860
:1028D0008A3009F48DC08B3009F470C0893039F723
:1028E00080919C02813219F78091A0029091A102FF
:1028F000009711F00297D9F68091E800877F8093C6
:10290000E8008091E80082FF37C09091F300809149
:10291000F200029729F48091F1008B7F813021F43D
:102920008091F10080938F028091E8008B778093F3
:10293000E8000E94FC03BBCF80919C02813A09F021
:10294000B6CF8091E800877F8093E8008091A00255
:102950009091A102892B61F468E080E992E070E037
:102960000E94AE048091E8008B778093E8009FCFAF
:1029700060E090E080E0F3CF80919A028111C1CFB6
:1029800096CF80919C02813A09F091CF8091A0026C
:102990009091A102892B09F08ACF8091E800877F6E
:1029A0008093E8008091E80080FFFCCF80911C01BB
:1029B0008093F1008091E8008E77B9CF80919C02DE
:1029C000813209F074CF8091A0029091A102892BED
:1029D00009F06DCF8091E800877F8093E8000E9426
:1029E000FC0380919E0280931C010E942A145FCFF9
:1029F00080919C02813209F05ACF8091E800877F54
:102A00008093E8000E94FC0380919F0280938E02D5
:102A10004ECF80919C02813A09F049CF8091E80025
:102A2000877F8093E8008091E80080FFFCCF809151
:102A30008E02BECF803899F0823809F076C080913E
:102A4000A0028F70873008F070C08093E9008091F9
:102A5000EB0085FB882780F91092E90006C0809181
:102A6000980290919902911182609091E800977F6D
:102A70009093E8008093F1001092F1008091E800BB
:102A80008E77B5C1882309F4A2C1823009F04DC008
:102A900080919E028111A6C18091A0028F702FEFBC
:102AA000280F263008F041C08093E9002091EB0008
:102AB00020FF98C1933031F48091EB0080628093C5
:102AC000EB0090C19091EB0090619093EB0021E0BE
:102AD00030E001C0220F8A95EAF72093EA001092B5
:102AE000EA008091EB008860EACF81111EC010914E
:102AF0009E021F778091E3008078812B8093E30012
:102B00008091E800877F8093E8000E94FC03809119
:102B1000E80080FFFCCF8091E30080688093E300B1
:102B200082E0111183E080939A028091E80083FF94
:102B30000AC08091E800877F8093E8008091EB00D5
:102B400080628093EB00AA960FB6F894DEBF0FBEAA
:102B5000CDBFDF91CF911F9108958058823028F723
:102B600020919E0230919F022C3DE3E03E07A1F5AB
:102B700083E08A838AE289834FB7F894DE01139653
:102B800020E03EE051E2E32FF0E050935700E49163
:102B900020FF03C0E295EF703F5FEF708E2F90E053
:102BA000EA30C0F0C7968D939D932F5F243159F77B
:102BB0004FBF8091E800877F8093E8006AE270E071
:102BC000CE0101960E94AE048091E8008B7780933D
:102BD000E800ABCFC096E7CF8091A0029091A10210
:102BE000432F55274330510509F44AC078F5413049
:102BF000510509F47AC08BE590E0E1EEF5E0423052
:102C0000510509F092CF2091E800277F2093E8003A
:102C10002091A2023091A3028217930708F49C012D
:102C200040E02115310509F065C0411163C0809174
:102C3000E80082FDC9CF80919A02882329F285306D
:102C400019F28091E80083FFF2CFBECF41325105E7
:102C500009F43CC04232510509F067CF8330910539
:102C600008F063CFFC01EE0FFF1FE65AFE4F019004
:102C7000F081E02D895A9E4FDC018C9190E01AC0C2
:102C8000332721303105D1F02115310561F0223093
:102C9000310509F04ACFEEE4F6E0E4918E2F90E0A2
:102CA000EEE4F6E007C0EEE6F6E0E4918E2F90E069
:102CB000EEE6F6E0009709F438CFA5CFE0E6F6E0BF
:102CC000E4918E2F90E0E0E6F6E0F4CF83309105BA
:102CD00008F02BCF880F991FFC01E05AFE4F01909E
:102CE000F081E02D89E090E08ECF82E190E0ECE38E
:102CF000F6E089CF80919A02882309F465CF853068
:102D000009F462CF8091E80083FD5ECF8091E800F6
:102D100082FD8DCF8091E80080FF83CF9091F300FA
:102D20008091F2002115310519F08830910550F09D
:102D300041E0089709F040E08091E8008E778093A9
:102D4000E8006FCF44914093F10031962150310952
:102D50000196E8CF803809F0E8CE8091E800877FBF
:102D60008093E80080919B028093F10087CE8111CF
:102D7000DCCE10919E02123008F0D7CE8091E80090
:102D8000877F8093E80010939B020E94FC0311232D
:102D900011F084E005C08091E30087FDFACF81E067
:102DA00080939A0242E061EC81E00E941B0442E2BF
:102DB00061EC84E00E941B0442E261EC82E00E942C
:102DC0001B0442E260EC83E00E941B04AECE8091C3
:102DD0009E02813009F0A9CE81E0933009F080E0B5
:102DE000809399021092E9008091E800877F809398
:102DF000E8000E94FC0399CE90917C0290FF3DC0B8
:102E00009170811129C0926090937C02662351F0E9
:102E100060917C0270917D0280917E0290917F0290
:102E20000E940F1360917C02669570E04BE050E0C9
:102E300084E091E00E940829892BA9F010927B027E
:102E400081E08093550220E040917F0260917E02F4
:102E500080917D020C9421138B3210F09465D4CFB5
:102E6000880F982BD1CF81E080937B020E9434059C
:102E70009093530280935202E3CF089580917C0295
:102E80008695815009F48AE261E00C94FC168091E9
:102E90007C0286958F5F8B3208F081E061E00C94B4
:102EA000FC1690917C0290FF07C09695981720F031
:102EB000961710F40C94471761E00C94FC163F929F
:102EC0004F925F926F927F928F929F92AF92BF923A
:102ED000CF92DF92EF92FF920F931F93CF93DF93E6
:102EE00000D000D000D0CDB7DEB78C01FC018381CB
:102EF0009481892B31F08081918189238F3F09F062
:102F00004BC626960FB6F894DEBF0FBECDBFDF913D
:102F1000CF911F910F91FF90EF90DF90CF90BF90D6
:102F2000AF909F908F907F906F905F904F903F9069
:102F300008950E94F10BF82E682F89819A810E94D2
:102F4000B50569817A818F2D0E94770A7C01F8018D
:102F5000D280DD2009F415C682519F45409708F0C4
:102F6000D5C58FEF93E00E941529FEEEEF0E57EEC8
:102F7000852E99249394882389F180913B02877050
:102F800009F4BFCFF8018281882309F4BACF82E027
:102F900026960FB6F894DEBF0FBECDBFDF91CF915E
:102FA0001F910F91FF90EF90DF90CF90BF90AF9067
:102FB0009F908F907F906F905F904F903F900C9478
:102FC000060A811424E09206C1F2C4010E94152968
:102FD000811101C0EA943FEF831A930AE110F1CF07
:102FE0001C821B82442443944AE0342E74018FEFE8
:102FF000E81AF80AC4010E94152989831A828823D5
:1030000009F4BBCF9FEF980F933000F58A83498274
:1030100092E0890E911CC7010E9415298B83882399
:1030200009F4ABCFFE0131967F01F7012081222305
:10303000E9F2213009F049C091818281913041F457
:10304000F2E0EF0EF11C0E942E0D09C04701EACFFD
:10305000923049F422E0E20EF11C0E94C1083FEFD9
:10306000E31AF30AE2CF933031F432E0E30EF11CBD
:103070000E94C107F4CF943021F08FEFE81AF80ACC
:10308000EECF92E0E90EF11C30E020E0B7016F5F77
:103090007F4FF70141818053990B8A30910550F0A1
:1030A00021503109E0F28FE99FE00197F1F700C06C
:1030B0000000F6CF329EF001339EF00D11249C01EA
:1030C0002E0F3F1F842F7B01E1CFE22FF0E0E45B66
:1030D000FA4F5490822F86958695869590E0FC0154
:1030E000E45CFA4F64902770712C022E02C0759434
:1030F00067940A94E2F7E1E06E227724FC01E45D34
:10310000FA4FA490B12C022E02C0B594A7940A9451
:10311000E2F7F1E0AF22BB24FC01E45EFA4FC49079
:10312000D12C02C0D594C7942A95E2F721E0C2229F
:10313000DD246114710419F081EE0E94C108A1140C
:10314000B10419F086EE0E94C108852D0E942E0D53
:10315000AB2819F086EE0E94C107672819F081EEAE
:103160000E94C107CD2809F47ACF8CE26CCF81E0B0
:103170000E94220A0E94C70900CF81E00E94E30951
:10318000F9CF82E0F5CFF1E6EF16FDE5FF0681F11C
:1031900022E6E2162DE5F20609F0D2C4DD20B1F1F7
:1031A00081E08093D901E9CE0E94ED0629834B830B
:1031B0005C836D837E83532FDD2051F051605A83F1
:1031C00049816B817C818D819E810E94CE06D5CE06
:1031D0005E7FF5CF0E94ED0629834B835C836D8370
:1031E0007E83532FDD2011F05260E9CF5D7FE7CF62
:1031F0000E94ED0629834B835C836D837E83532F6E
:10320000DD2011F05460DBCF5B7FD9CF1092D90164
:10321000B4CE25EFE2162CE5F20609F469C008F4F5
:1032200063C027E245EE66EE86EFE8168CE5F80609
:1032300009F4A3C4DD2009F4C0C41092A60292E0F0
:10324000E9169CE5F90608F447C1E6E1EE16ECE55F
:10325000FE0630F0C7018A5F9C45099708F03CC123
:103260000E94430A9093450280934402F0E1EF16D6
:10327000FCE5FF0609F4FFC008F078C038E0E3166B
:103280003CE5F30609F4E5C008F048C094E0E9160F
:103290009CE5F90609F4D1C090F5F2E0EF16FCE5E3
:1032A000FF0609F4C4C080914402826023E0E21664
:1032B0002CE5F20609F4BEC060914402F09045028C
:1032C00084E090E00E9429296F2D82E290E00E9424
:1032D00029290E942A1451CE27E245EE65EE4DC4FD
:1032E00026E241EE60EE49C427E245EE64EE45C4B5
:1032F00026E241EE62EE41C428E241E0EFCF809148
:103300004402806136E0E3163CE5F30609F492C01E
:1033100008F497C08091440280628CC0809144027E
:103320008D7F9CE0E9169CE5F90609F483C078F4EA
:10333000809144028C60FAE0EF16FCE5FF0609F488
:1033400079C008F48AC0809144028E7F73C0809156
:103350004402877F3EE0E3163CE5F30609F46AC0C9
:1033600008F481C0809144028F7E64C09BEFE9160F
:103370009CE5F90609F469C068F5F3E1EF16FCE590
:10338000FF0609F480C090F431E1E3163CE5F30652
:1033900009F475C082E1E8168CE5F80609F08CCFD7
:1033A0000E942A14809144028F7744C095E1E91667
:1033B0009CE5F90609F46FC008F483C080914502CA
:1033C0008160FAEFEF16FCE5FF0609F075CF8093F8
:1033D000450272CF2FEFE2162CE5F20609F457C032
:1033E00090F48DEFE8168CE5F80609F440C0809162
:1033F00045028E7F9EEFE9169CE5F90640F3809129
:1034000045028360E4CFE1E0EE16EDE5FE0609F447
:1034100061C008F44CC060E022E0E2162DE5F2063F
:1034200009F04ACF8EE090E00E94292945CF809193
:1034300044028160809344023FCF809144028460C3
:10344000F9CF809144028860F5CF80914502826077
:10345000BECF809144028064EDCF0E942A148091F7
:1034600044028068E7CF809144028B7FE3CF809154
:1034700045028D7FACCF809144028F7DDBCF809160
:1034800044028F7BD7CF80914402837FD3CF80913A
:1034900045028C7F9CCF8091440282FB992790F952
:1034A00021E0922790FB82F990FB83F9C3CF8091B2
:1034B0004502982F909591708E7F892B90FB81F912
:1034C00086CF0E942A1490914402892F97FB87F996
:1034D0008058B0CF61E0A6CF80913E0236E1E3167E
:1034E0003CE5F30609F082C38A7A91E009F490E0A2
:1034F0009093DA0169E2811165E388E691E00E9428
:1035000040050E94600539CD85E362C380917C024D
:1035100080FF1BC08E7F80937C0260917C02709143
:103520007D0280917E0290917F020E940F13109283
:103530007B028FEF90E7E2E081509040E040E1F7BE
:1035400000C000000E94AF0D18CD816080937C0206
:1035500061E086950E94FC1610CD4EE357E167E4CA
:1035600077E10E941A0609CD47E457E16EE377E15F
:10357000F8CF4FEE53E166EE73E1F3CF4EEC53E13B
:103580006AED73E1EECF46EB53E162EC73E1E9CF14
:1035900042EC53E166EB73E1E4CF49E054E168EFBC
:1035A00073E1DFCF61E081E0D5CF65E082E00E948A
:1035B0005117E3CC68E086E0FACF64E18FE0F7CF03
:1035C00067E185E1F4CF62E289E1F1CF61E083E276
:1035D000C1CF9BE5E9169DE5F90611F1ECE5EE1684
:1035E000EDE5FE0609F034C38091450282FB882791
:1035F00080F991E089270E94B60C2AC30E942A1400
:10360000FFEF24E33CE0F15020403040E1F700C000
:1036100000000E9414050E94A412AFCC81E0EBCF01
:1036200080E0E9CFC7010E948D05D82E20C32F2D41
:103630002F70A22E8F2D807F19F0A29490EFA922D7
:10364000DD20C9F0AA2069F080E28E0D883010F0EC
:1036500081100BC080913E02A82AA0923E020E94D7
:1036600060058E2D0E94C10819C080913D02A82AD4
:10367000A0923D02F4CF8E2D0E94C107AA2071F0C6
:10368000A09480E28E0D883010F081103DC08091B2
:103690003E02A822A0923E020E946005E32DE8505F
:1036A000FF0B349710F40E940E06CC2009F429CCAD
:1036B00080913B0280FD25CCF8011282859585958D
:1036C00085950E94220AC8010E945F1780913B02E3
:1036D00085958595859526960FB6F894DEBF0FBE25
:1036E000CDBFDF91CF911F910F91FF90EF90DF90B1
:1036F000CF90BF90AF909F908F907F906F905F9092
:103700004F903F900C94E30980913D02A822A09233
:103710003D02C2CF3F2D3F70932E8F2D807F803290
:1037200019F0929480EF9822882071F081E0881639
:1037300081F1DD20D9F1AA2091F1F801858180FF86
:1037400090CF8F7085832BC0DD20B1F090913F0228
:10375000892D892BA11003C00E94F6059FCFE1E0BF
:10376000AE12FACF2091450222FD98CF981709F4A6
:1037700095CF80933F0292CFA11006C00E945A05B8
:10378000892D0E94EB058ACFF1E0AF1609F486CFB0
:10379000F5CFDD2031F025E02A1508F47FCF892D03
:1037A000DBCF34E03A1508F479CFEACFAA2041F311
:1037B000F9E38F12A4C12FEF37EE83E021503040A0
:1037C0008040E1F700C000009AC18E2DDD2031F16C
:1037D0000E946708EE2DE45FFF0BE530F10508F568
:1037E00021E030E0790101C0EE0CEA95EAF70E9491
:1037F000ED0629834B835C836D837E83532F5E2983
:10380000D11003C05E2D509553235A8349816B819B
:103810007C818D819E810E94CE0640CF0E94480708
:10382000D9CF0E940E073ACF8F2D837009F066C062
:10383000D11034CF8E2D829586958770880F880F92
:103840006E2D6F70462E512C712C612C082E04C0E9
:10385000440C551C661C771C0A94D2F740E050E0DB
:10386000BA01E4FE0FC04FE050E060E070E004C039
:10387000440F551F661F771F8A95D2F740955095C4
:10388000609570958F2D869586958370823019F19D
:10389000D8F48090400290904102A0904202B090F3
:1038A0004302813069F04429552966297729CB01E3
:1038B000BA01682179218A219B210E943E07EECE20
:1038C000482859286A287B28CB01BA016429752920
:1038D00086299729F2CF44295529662977294090CE
:1038E0004002509041026090420270904302CB012E
:1038F000BA016425752586259725DFCF8695DD20BD
:1039000011F08F2D8170882309F4C8CE8E2D8295F9
:1039100086958770880F880F6E2D6F70462E512CFC
:10392000712C612C082E04C0440C551C661C771C9D
:103930000A94D2F740E050E0BA01E4FE0FC04FE035
:1039400050E060E070E004C0440F551F661F771F11
:103950008A95D2F740955095609570958F2D8695F4
:1039600086958370823019F1D8F48090A7029090E8
:10397000A802A090A902B090AA02813069F044295F
:10398000552966297729CB01BA01682179218A2135
:103990009B210E94BB0982CE482859286A287B288F
:1039A000CB01BA016429752986299729F2CF4429C8
:1039B0005529662977294090A7025090A802609067
:1039C000A9027090AA02CB01BA016425752586254B
:1039D0009725DFCFFF2DFF70FF2EDD2029F08F2FE1
:1039E0000E94220A8E2DB8CE8E2D0E94EB058F2DBF
:1039F0000E94E30953CE8E2D22EF821609F456C0A1
:103A0000281578F030EF831641F191EF891609F40B
:103A100045C0DD2009F46EC0A11023CE8F2D8F711B
:103A200042C0E3EF8E1609F446C0F4EF8F12F1CFD7
:103A3000DD2009F454C08F2D8F71F82E0E94220AC8
:103A40008091450282FD07C0E8E0FE9EC00111247E
:103A5000836080933B028F2D26C0DD20D1F024E0CF
:103A60002A1508F41BCE2F2D2F7161E070E080E045
:103A700090E004C0660F771F881F991F2A95D2F720
:103A80004090A7025090A8026090A9027090AA02EC
:103A90009CCF35E03A1508F401CEE5CF8F2D8F711C
:103AA000DD2009F4A5CF0E94220AF8CD8F2D8F7159
:103AB000DD20C9F39DCF60E070E0CB01DD2009F48B
:103AC00068CF2F2D2F7161E070E080E090E004C09E
:103AD000660F771F881F991F2A95D2F75ACF81E06A
:103AE0000E94060AF1E0FA1508F0D8CD82E00E94A3
:103AF000060AD4CDAA2039F0893309F45CCE8E2D84
:103B00000E94C107CBCD8F2D8F7172CFF0E1EF16E0
:103B1000FFE5FF0609F42BCB21E1E2162FE5F206C3
:103B200009F42FCB80E6E8168DE5F80609F452CBB0
:103B300008F029CBEFE5EE16EDE5FE0609F434CBEF
:103B400033EFE3163CE5F30609F4CACB08F061CB8A
:103B500098EDE9169CE5F90609F4BECBE9EDEE1601
:103B6000ECE5FE0609F4C8CBF7EDEF16FCE5FF0621
:103B700009F060CB26E241EE61EEC8010E944B0DD8
:103B8000FCC980319F4509F4F8CA81E1E8168FE548
:103B9000F80641F682E0F2CA85E0DE011196019056
:103BA0000D928A95E1F7F801228189819A8121118C
:103BB000C0C90E948D05F82EC4C9F6E1EF16FCE5D8
:103BC000FF0609F045C08091DA0181119DCC89E2A0
:103BD000EAE6F1E020E731E09191891303C0DF01CB
:103BE00011971C922E173F07B9F78BCC82722CECE1
:103BF000E2162CE5F20609F4D0CC08F0A5C096EC4C
:103C0000E9169CE5F90609F4B4CC08F074C0F3ECAD
:103C1000EF16FCE5FF0609F4A0CC08F05BC032EC1F
:103C2000E3163CE5F30609F471CCFAE5EF16FDE581
:103C3000FF0609F4F3CC08F0CCCCE1143CE5F30624
:103C400009F4DCCC8EEDE8168CE5F80609F4E3CC3B
:103C5000F8018281E080F180882309F4E3CCC70178
:103C60000E94F10BD82E682FC7010E94B505B7013D
:103C70008D2D0E94840A7C01882EF801D280A580B7
:103C8000A2943FE0A32280913B028770A1F0CD2C4B
:103C9000DD2091F08F2D807F803421F080E28E0D29
:103CA000883048F082E00E94060A80913B028770CB
:103CB000CC24C3948111C12C3F2C32942FE03222AA
:103CC000FBE0F31508F4EACCE32DF0E0E858F44DFE
:103CD0000C94902894ECE9169CE5F90609F444CC80
:103CE00046EE53E16FEE73E1E5ECEE16ECE5FE0611
:103CF00009F437CC9ACFF9ECEF16FCE5FF0609F48E
:103D000042CC88F437ECE3163CE5F30609F436CCF4
:103D10004AED53E16EEC73E198ECE9169CE5F90687
:103D200009F41FCC82CFEAECEE16ECE5FE0609F4AE
:103D30002FCC48EF53E169E074E1FBECEF16FCE5B2
:103D4000FF0609F40ECC71CF21EDE2162CE5F20648
:103D500009F433CCB8F48EECE8168CE5F80609F4D7
:103D600024CC08F41FCCEFECEE16ECE5FE0609F4CB
:103D700021CC6EE089E0F0EDEF16FCE5FF0609F4DA
:103D800016CC53CF24EDE2162CE5F20609F41BCC39
:103D900078F482EDE8168CE5F80609F411CC61E0C0
:103DA00088E193EDE9169CE5F90609F4D3CB3DCF04
:103DB000E5EDEE16ECE5FE0609F408CC6AE285E2D4
:103DC000FDE5EF16FF0609F4F2CB2FCF1F93CF933B
:103DD000DF938091E501807FA9F48091E20188233F
:103DE00089F080911702D091E6016091E001709115
:103DF000E101A091E301B091E401C62FC72316E0D1
:103E0000D81304C0DF91CF911F91089590E01097CF
:103E100011F0CF3F19F401968770F2CF189F9001EF
:103E2000199F300D1124F901E951FE4F41814713CB
:103E3000F2CF40814613EFCF42814111ECCF438155
:103E400054814A1B5B0B4436510528F78091E501EC
:103E50008F7080618093E501F901E451FE4F80810C
:103E60008F708061808380EE91E00E945F17DF9108
:103E7000CF911F910C94E105AF92BF92CF92DF9248
:103E8000EF92FF920F931F93CF93DF93CDB7DEB7DF
:103E900061970FB6F894DEBF0FBECDBF8C0185E0F1
:103EA000F801DE011D9601900D928A95E1F7F80167
:103EB00080819181E28020EEA22E21E0B22E6091DD
:103EC000E3017091E4016115710509F42BC1309192
:103ED000E0014091E101232F24232F3F09F422C167
:103EE000C380D480F090E201F601E61BF70BFF20BF
:103EF00009F4FBC02091E501522F507FE436F10513
:103F000008F0BBC0511178C0FE2C491321C03813F2
:103F10001FC0E1101DC02F7020612093E501C50175
:103F20000E945F178091E501F80185838F2D6196CE
:103F30000FB6F894DEBF0FBECDBFDF91CF911F91BA
:103F40000F91FF90EF90DF90CF90BF90AF900895CA
:103F5000CD2829F0282F29232F3F09F001C120E087
:103F6000F22FF170DF2E20FF3DC02091170240910B
:103F7000E60156E0241315C08D879E878D859E85AA
:103F80000E94330C292F22952F702230F8F0243014
:103F900020F59F70F9F0F8019581907FD9F4D12C2C
:103FA0001FC030E0529FF001539FF00D1124E951E2
:103FB000FE4F6181961306C06081861303C0628143
:103FC000E61210C02F5F3F4F2770D4CF9F7011F0C3
:103FD000882329F3805E883010F3C8010E945F17A0
:103FE000FD2CA4CFEE2009F4A1CF8091E5018160E2
:103FF0008093E501F12C9ACF491312C0381310C0F9
:10400000E1100EC0F8012583C8010E945F1786E009
:10401000F801A0EEB1E001900D928A95E1F786CF0C
:104020008D879E878D859E850E943D0C882309F192
:10403000EE20F9F08091E501803270F02091E001EE
:104040003091E10138872F831986DB86CA868C87F9
:10405000CE0107960E945F1786E0F801A0EEB1E05E
:1040600001900D928A95E1F70E94E61EFF24F394D9
:104070005DCFC8010E945F17F9CF51110AC080EED1
:1040800091E00E945F1786E0F50111928A95E9F7A9
:10409000B1CF49130FC038130DC0E1100BC0F801A8
:1040A0002583C8010E945F1786E0F50111928A9569
:1040B000E9F73CCF8D879E878D859E850E943D0CBC
:1040C0008823B9F2EE20A9F28091E501803220F236
:1040D0002091E0013091E1013A8329831B82DD8246
:1040E000CC828E83CE010196B5CFE436F105E0F6A1
:1040F000FE2CEE2009F4BDCF491303C0381709F494
:1041000086CF8D879E878D859E850E943D0C81116F
:10411000A3CF8091E50181608093E501C8010E94F1
:104120005F1704CFEE2009F4A4CF8D879E878D857D
:104130009E850E943D0CF82E882309F49ACF86E0D4
:10414000F801A0EEB1E001900D928A95E1F780911F
:10415000E0019091E1010E94330C0E94E61EE6CE40
:1041600021E02E25FDCE1F93CF93DF93CDB7DEB791
:1041700067970FB6F894DEBF0FBECDBF342F4B8BC1
:10418000252F5C8B6D8B7E8B8F8B8E899F89611128
:1041900010923D021A8A198A3D872E876F87998B64
:1041A000888B86E0FE013D96DE01179601900D9208
:1041B0008A95E1F7CE0107960E943C1F882389F07B
:1041C00016E0809117029091E601891349C0679625
:1041D0000FB6F894DEBF0FBECDBFDF91CF911F9118
:1041E000089586E0FE013796DE01119601900D924A
:1041F0008A95E1F78A859B85892B11F38F819885B4
:1042000089238F3FE9F22091E60130E0C901019650
:1042100087709927409117024817190671F40E9478
:104220002A141092E6011092170286E0E0EEF1E007
:10423000DF011D928A95E9F7C3CF96E0929FD001E6
:10424000939FB00D1124A951BE4FFE0131960190EC
:104250000D929A95E1F78093E6010E94E105B0CFB7
:10426000819FC001112489519E4F0E943C1F8823C9
:1042700009F4ADCF8091170290E0019687709927DD
:10428000809317029ECF1F920F920FB60F921124A8
:104290002F933F934F935F936F937F938F939F934E
:1042A000AF93BF93CF93DF93EF93FF93D091E90048
:1042B000DF708091EC00C82FC17080FDC0E81092C3
:1042C000E9008091F000877F8093F00078940E944D
:1042D00035141092E9008091F00088608093F0001E
:1042E000CD2BCF70C093E900FF91EF91DF91CF917B
:1042F000BF91AF919F918F917F916F915F914F91FE
:104300003F912F910F900FBE0F901F9018951F9205
:104310000F920FB60F9211242F933F934F935F93F9
:104320006F937F938F939F93AF93BF93EF93FF937D
:104330008091E10082FF09C08091E20082FF05C008
:104340008091E1008B7F8093E1008091DA0080FF13
:1043500024C08091D80080FF20C08091DA008E7F39
:104360008093DA008091D90080FF9BC080E189BDF5
:1043700082E189BD09B400FEFDCF81E080939A02FD
:1043800080918D02811109C00E9482030E944D0418
:104390008091E20084608093E2008091E10080FFE0
:1043A00017C08091E20080FF13C08091E2008E7FF1
:1043B0008093E2008091E20080618093E20080912E
:1043C000D80080628093D80019BC85E080939A025F
:1043D0008091E10084FF29C08091E20084FF25C024
:1043E00080E189BD82E189BD89B5982F917080FFF8
:1043F000FBCF8091D8008F7D8093D8008091E10021
:104400008F7E8093E1008091E2008F7E8093E200B6
:104410008091E20081608093E20080919B0288237A
:1044200009F445C084E080939A028091E10083FF03
:1044300027C08091E20083FF23C08091E100877F45
:104440008093E10082E080939A0210929B02809117
:10445000E1008E7F8093E1008091E2008E7F809367
:10446000E2008091E20080618093E20042E060E03F
:1044700080E00E941B048091F00088608093F0002F
:10448000FF91EF91BF91AF919F918F917F916F912C
:104490005F914F913F912F910F900FBE0F901F9002
:1044A000189519BC10929A0210928D0276CF8091C5
:1044B000E30087FD93E090939A02B7CFCDB7DEB7C4
:1044C000AA970FB6F894DEBF0FBECDBF84B7877F23
:1044D00084BF0FB6F894A89580916000886180939E
:1044E0006000109260000FBE80E890E00FB6F89474
:1044F00080936100909361000FBE85B7806885BF8F
:1045000085B7806885BF8DE095E0909367018093C3
:1045100066010E9482030E944D048091E200846043
:104520008093E200789480919A028823A1F0109100
:10453000E9001F709091EC00892F817090FD80E858
:10454000182B1092E9008091E80083FD0E94351439
:104550001F701093E90082E084BD93E095BD9AEF4F
:1045600097BD80936E0008E411E0F80181918F01FE
:104570000E940309F1E000351F07B9F700E511E0DB
:10458000F80181918F010E940309F1E007351F07AF
:10459000B9F7E6E4F2E0A1E8B2E011921D9222E060
:1045A000EE34F207D1F790E080E00E9423298A3EA2
:1045B0009E4F11F00E94A41282E090E00E94152903
:1045C000809371020E94430A9093450280934402B3
:1045D0000E941A108FE39CE90197F1F700C00000D8
:1045E0000E941A108091810280FF17C06FEF83E252
:1045F00090E00E9429296FEF84E290E00E9429292F
:104600006FEF85E290E00E9429296FEF7FEF90E045
:1046100080E00E9447290E94140583E090E00E94F8
:104620001529682F70E090E080E00E943E076091BD
:10463000A7027091A8028091A9029091AA020E94FB
:104640005D09509A5198599A83E290E00E94152989
:10465000813209F0ACC484E290E00E9415298730D1
:1046600009F0A5C485E290E00E941529883209F07E
:104670009EC480914E02811136C090E080E00E947D
:1046800023298A3E9E4F21F00E94A4120E941A14F0
:1046900088E090E00E941D2960937C0270937D0267
:1046A00080937E0290937F026E7F71F40E941A14B1
:1046B00088E090E00E941D2960937C0270937D0247
:1046C00080937E0290937F020E941F0610927B02CD
:1046D00080917C0280FF04C060E086950E94FC16F9
:1046E00081E080934E0282E191E0909350028093AA
:1046F0004F0298E1E92EF12C20E4C22E81E892E0ED
:1047000038E0D32ED80E80919A0200E112E1853074
:1047100009F49EC10E941A10882359F08FB7F894AB
:104720004091890250918A0260918B0270918C02B3
:104730008FBFE2E7F2E0A1E8B2E010E000E0302F46
:104740008D919191981709F492C1292F282790E013
:10475000BB24B394422F4B2109F484C199A33AA3FB
:104760008B2191E009F490E09BA30E9434058160C5
:10477000782F9DA38CA349A15AA16BA18DA10E9462
:10478000B320F801EE58FD4F8081B826B0828091A9
:104790007B028823D1F180917A02E0917C02E69538
:1047A000E81BE0935402823009F078C1F0E0E35254
:1047B000FA4FE4910E2F10E086EFA82E8FE0B82E6E
:1047C00080915502882361F0109255020E943405B1
:1047D0009093530280935202109257021092560205
:1047E0000E943405E0915202F09153028E1B9F0B00
:1047F0008F3F9F4750F4E00FF11FF0935302E09377
:10480000520282E592E0F501099586E0EEE5F2E0DC
:10481000DE01119601900D928A95E1F7B090600249
:10482000A0906102109162020091630210926002F6
:104830001092610210926202109263028B2D8A29FB
:1048400009F448C080915C0290915D020E942505A8
:104850009C0190915B02992309F4D0C32333310565
:10486000C8F19F3F19F09F5F90935B02BB2059F006
:104870000E9447089FEF1B140CF491E0899F802D44
:10488000112480936002AA2059F00E9447089FEFEC
:104890001A140CF491E0899F802D112480936102F9
:1048A000309160023323B1F020916102222391F014
:1048B00045EB3403C0011124992309F45BC19093A3
:1048C000600245EB240390011124332309F456C1FF
:1048D00030936102812F802B09F448C080915902E6
:1048E00090915A020E9425059C01909158029923AB
:1048F00009F47FC325363105C8F19F3F19F09F5F4A
:1049000090935802112359F00E9425089FEF111629
:104910000CF491E0899F802D112480936202002382
:1049200059F00E9425089FEF10160CF491E0899F22
:10493000802D112480936302309162023323B1F001
:1049400020916302222391F045EB3403C00111242E
:10495000992309F417C19093620245EB2403900157
:104960001124332309F412C1309363028091600251
:1049700090916102892B90916202892B9091630240
:10498000892B11F00E940E0786E0FE013196AEE5FC
:10499000B2E001900D928A95E1F730916C0220917E
:1049A0006D0290916E0280916F027091660260912B
:1049B00067024091680250916902F0916B02E091A8
:1049C0006502FE13E7C0332311F03713E3C022233F
:1049D00011F02613DFC0882311F05813DBC0992390
:1049E00019F081E04913D7C080E0D5C080919A02C8
:1049F000843009F1109251020FB6F894A895E09214
:104A000060000FBEC092600083B7817F846083BF67
:104A100083B7816083BF7894889583B78E7F83BF87
:104A20000FB6F894A895809160008861809360002B
:104A3000109260000FBE80919902882349F00E9475
:104A40001A10E1E8F2E0819181119BC2DE12FBCFE6
:104A500080919A02853009F4C9CF0E942A140E94DD
:104A60000E0658CE9F5FBB0C973009F073CE0F5FD8
:104A70001F4F0830110509F062CE8FEF8EA38FA370
:104A800018A60E9434058160782F9AA789A74EA1A5
:104A90005FA168A58AA50E94B32079CE863059F41B
:104AA000F0E0E652FA4FE4910E2F10E0BAE0AB2EA0
:104AB000B0E1BB2E85CE893061F4E695F0E0E95295
:104AC000FA4FE4910E2F10E0A4EEAA2EADE0BA2E1C
:104AD00077CE8F3061F4E695F0E0EC52FA4FE49136
:104AE0000E2F10E0FEE0AF2EFEE0BF2E69CE853126
:104AF00059F4F0E0EF52FA4FE4910E2F10E0ECE79A
:104B0000AE2EEEE0BE2E5CCE08E210E05AECA52EF2
:104B10005EE0B52E883109F453CE833249F4EFECD0
:104B2000F5E0059114917DE9A72E7FE0B72E48CEE0
:104B300004EF11E043E5A42E4FE0B42E843209F4D3
:104B40003FCE00ED17E03CE0A32E35E0B32E8532DA
:104B500009F036CE8E2F63E00E944E28E92FF0E058
:104B6000E453FA4FE4910E2F10E065EFA62E61E1B9
:104B7000B62E26CE81E080936002A3CE81E08093A2
:104B80006102A8CE81E080936202E7CE81E080934B
:104B90006302ECCE81E080FF04C08AE692E00E94CE
:104BA000000610926C0210926D0210926E0210922A
:104BB0006F0286E0EAE6F2E0A4E6B2E001900D9230
:104BC0008A95E1F70E940E0690917002891721F0F4
:104BD0000E940E068093700280919A02843009F040
:104BE00092CD83E08093E9008091E80082FF8BCD35
:104BF0008091E80090E085FF05C00E94A103882312
:104C000099F091E08091E8008B778093E8009923F8
:104C100009F479CDE981E150E33108F07FC0F0E09B
:104C2000EC57F44D0C94902800E210E0CE01019670
:104C30005C018091E80085FD0AC08091E8008B77D7
:104C40008093E8000E94A103882399F3DACF809132
:104C5000F100F50181935F010150110951F7D1CFA6
:104C60001A8289E08B831AC08A81823009F4B8C124
:104C70008330D9F1813009F051C02FB7F894609199
:104C8000890270918A0280918B0290918C022FBFD1
:104C90000E9496286B837C838D839E8380919A02E9
:104CA000843009F030CD1091E9001F709091EC0034
:104CB000892F817090FD80E8182B82E08093E900B5
:104CC0008091E80080FF0DC050E040E060E270E0BD
:104CD000CE0101960E94D2038091E8008E778093E6
:104CE000E8001F701093E9000ECDDE011396E1E895
:104CF000F2E081918D9322E0E938F207D1F7CECF2F
:104D00008A81823059F46B817C818D819E810E94E1
:104D1000962886E290E00E942929C0CF8FEF8983F0
:104D2000BDCF4C816B818A810E94510A98278927C7
:104D300098279E838D83B2CFAD80BE80BA24AB24EA
:104D4000BA248A810B814EE0049F8001112490E7F0
:104D5000899F000D111D11248C8190E0880F991FEF
:104D6000080F191F6B2DC80187960E9429296A2DEB
:104D7000C8018896D0CF0E94610C90CF8A8181387B
:104D8000C1F060F4803809F089CF20E04B81609158
:104D90007E0280917D020E94211380CF823859F1DA
:104DA000833809F07BCF20E040917F026C818B81BA
:104DB000F2CF60E08B810E94FC169B8180917C0287
:104DC000911111C08E7F80937C0210927B02EFEFD5
:104DD000F0E722E0E150F0402040E1F700C00000A1
:104DE0000E94AF0D5BCF816080937C0260E086956E
:104DF0000E94FC1653CF8B81809380024FCF8A8113
:104E0000813899F030F4803809F048CF80917F02E2
:104E100029CF823891F0833809F040CF80917D020C
:104E20008B8380917E028C8339CF80917C0280FFBE
:104E300002C0869517CF80E015CF8091800212CFF7
:104E400060917C0270917D0280917E0290917F0240
:104E50000E940F1323CF80E18A8320CF82E08A83D0
:104E600089E100CF0A811B81102701271027CE017D
:104E700001965C018C80FC01E80DF11D4F01C80119
:104E800089519E4FA814B90409F408CF0931F2E002
:104E90001F0750F40E941529F50184830F5F1F4FEF
:104EA000FFEFAF1ABF0AEBCFF5011482F7CF0A81EB
:104EB0001B81102701271027CE0101964C01AC80E1
:104EC000A00EB12EB11CC80189519E4FA016B1068B
:104ED00009F4E4CE0931E2E01E0720F4F401648114
:104EE0000E942929FFEF8F1A9F0A0F5F1F4FEBCFF8
:104EF0000E94D00CD3CE84E0AFCF0A811B81102753
:104F000001271027CE0101965C018C80FC01E80D81
:104F1000F11D4F01C80187968A149B0409F4BECE87
:104F2000003CF1E01F0750F40E941529F50184832D
:104F30000F5F1F4FFFEFAF1ABF0AECCFF5011482CE
:104F4000F7CF0A811B81102701271027CE01019678
:104F50004C01AC80A00EB12EB11CC8018796A016E2
:104F6000B10609F49BCE003CE1E01E0720F4F401F9
:104F700064810E942929FFEF8F1A9F0A0F5F1F4F3C
:104F8000ECCF09BD19BD09B400FEFDCF8091D8005A
:104F90008F7D8093D8008091E00082608093E00054
:104FA0008091E00081FDFCCF0E942A1451CD60E089
:104FB00086E290E00E9429290E94610C0E94D00C98
:104FC00061E283E290E00E94292967E084E290E0B8
:104FD0000E94292968E285E290E00E94292949CBB4
:104FE00086E290E00E9415291B821C821D828E831E
:104FF00055CE2D32314008F082CCB8CC2D32314024
:1050000008F031CC67CC78941F921FB61F92112400
:105010008F939F93AF93BF938091890290918A025F
:10502000A0918B02B0918C020196A11DB11D8093BD
:10503000890290938A02A0938B02B0938C02BF9155
:10504000AF919F918F911F901FBE1F9018951F9237
:105050001FB61F9211248F939F93AF93BF9380919C
:105060005102811113C08091890290918A02A0910E
:105070008B02B0918C024196A11DB11D80938902D3
:1050800090938A02A0938B02B0938C02BF91AF9150
:105090009F918F911F901FBE1F901895991B79E0CB
:1050A00004C0991F961708F0961B881F7A95C9F7B8
:1050B0008095089587FB082E062687FD819567FD5C
:1050C00061950E944E280EF4919507FC81950895F4
:1050D000AA1BBB1B51E107C0AA1FBB1FA617B7071E
:1050E00010F0A61BB70B881F991F5A95A9F780953A
:1050F0009095BC01CD01089597FB072E16F40094FE
:1051000007D077FD09D00E94682807FC05D03EF43F
:10511000909581959F4F0895709561957F4F089563
:10512000EE0FFF1F0590F491E02D09946927962753
:10513000692778278727782708950E94B129332384
:1051400012F48A1B9B0B0C94A7280E94B129B7FF6D
:105150000895821B930B08958F929F92AF92BF92F6
:10516000CF92DF92EF92FF92CF93DF93EC016881B1
:1051700079818A819B81611571058105910521F4F1
:1051800064E279ED8BE597E02DE133EF41E050E00B
:105190000E945D2949015A019B01AC01A7EAB1E4D3
:1051A0000E947C296B017C01ACEEB4EFA501940157
:1051B0000E948A29DC01CB018C0D9D1DAE1DBF1DF7
:1051C000B7FF03C00197A109B04888839983AA83D8
:1051D000BB839F77DF91CF91FF90EF90DF90CF90CF
:1051E000BF90AF909F908F9008950E94AC28089533
:1051F00080E091E00E94AC280895B0E0A0E08093A8
:10520000000190930101A0930201B093030108955E
:10521000FC014150504030F001900616D1F7319713
:10522000CF010895882799270895F999FECF92BD57
:1052300081BDF89A992780B50895A6E1B0E044E0D1
:1052400050E00C944F29A8E1B0E042E050E00C940B
:105250004F29262FF999FECF92BD81BDF89A01976B
:1052600000B4021639F01FBA20BD0FB6F894FA9AAE
:10527000F99A0FBE08950396272F0E942A290E94AB
:105280002929252F0E942A29242F0C942A290196A6
:10529000272F0E942A290C942929DC01CB01FC012B
:1052A000F999FECF06C0F2BDE1BDF89A319600B47F
:1052B0000D9241505040B8F70895052E97FB1EF40B
:1052C00000940E94742957FD07D00E948F2907FC83
:1052D00003D04EF40C947429509540953095219547
:1052E0003F4F4F4F5F4F0895909580957095619512
:1052F0007F4F8F4F9F4F08950E94B129A59F900D1A
:10530000B49F900DA49F800D911D11240895B7FFA7
:105310000C947C290E947C29821B930B0895A1E2A6
:105320001A2EAA1BBB1BFD010DC0AA1FBB1FEE1F1F
:10533000FF1FA217B307E407F50720F0A21BB30B6A
:10534000E40BF50B661F771F881F991F1A9469F7E6
:1053500060957095809590959B01AC01BD01CF0142
:105360000895A29FB001B39FC001A39F700D811D3E
:105370001124911DB29F700D811D1124911D08955E
:105380005058BB27AA270E94D8290C94B72A0E94FC
:10539000A92A38F00E94B02A20F039F49F3F19F46E
:1053A00026F40C94A62A0EF4E095E7FB0C94A02AB0
:1053B000E92F0E94C82A58F3BA17620773078407B7
:1053C000950720F079F4A6F50C94EA2A0EF4E095FE
:1053D0000B2EBA2FA02D0B01B90190010C01CA01AF
:1053E000A0011124FF27591B99F0593F50F4503E5A
:1053F00068F11A16F040A22F232F342F4427585F4C
:10540000F3CF469537952795A795F0405395C9F763
:105410007EF41F16BA0B620B730B840BBAF091501B
:10542000A1F0FF0FBB1F661F771F881FC2F70EC0BA
:10543000BA0F621F731F841F48F48795779567958D
:10544000B795F7959E3F08F0B0CF9395880F08F079
:105450009927EE0F9795879508950E94342A6894AE
:10546000B1110C94EB2A08950E94D02A88F09F571E
:1054700098F0B92F9927B751B0F0E1F0660F771F78
:10548000881F991F1AF0BA95C9F714C0B13091F06E
:105490000E94EA2AB1E008950C94EA2A672F782F37
:1054A0008827B85F39F0B93FCCF386957795679533
:1054B000B395D9F73EF490958095709561957F4F9F
:1054C0008F4F9F4F0895E89409C097FB3EF4909545
:1054D0008095709561957F4F8F4F9F4F9923A9F0CD
:1054E000F92F96E9BB279395F6958795779567955C
:1054F000B795F111F8CFFAF4BB0F11F460FF1BC0A0
:105500006F5F7F4F8F4F9F4F16C0882311F096E932
:1055100011C0772321F09EE8872F762F05C06623E0
:1055200071F096E8862F70E060E02AF09A95660F99
:10553000771F881FDAF7880F9695879597F9089552
:1055400097F99F6780E870E060E008959FEF80EC36
:10555000089500240A9416161706180609060895D9
:1055600000240A9412161306140605060895092E3F
:105570000394000C11F4882352F0BB0F40F4BF2BAE
:1055800011F460FF04C06F5F7F4F8F4F9F4F0895EE
:1055900057FD9058440F551F59F05F3F71F04795E4
:1055A000880F97FB991F61F09F3F79F087950895C9
:1055B000121613061406551FF2CF4695F1DF08C0E8
:1055C000161617061806991FF1CF86957105610505
:1055D00008940895E894BB2766277727CB0197F9AD
:1055E00008950E94042B0C94B72A0E94A92A38F02F
:1055F0000E94B02A20F0952311F00C94A02A0C945C
:10560000A62A11240C94EB2A0E94C82A70F3959FB5
:10561000C1F3950F50E0551F629FF001729FBB27A9
:10562000F00DB11D639FAA27F00DB11DAA1F649F45
:105630006627B00DA11D661F829F2227B00DA11DF8
:10564000621F739FB00DA11D621F839FA00D611D7E
:10565000221F749F3327A00D611D231F849F600D9F
:10566000211D822F762F6A2F11249F5750409AF0C8
:10567000F1F088234AF0EE0FFF1FBB1F661F771F54
:10568000881F91505040A9F79E3F510580F00C941F
:10569000A02A0C94EB2A5F3FE4F3983ED4F386955E
:1056A00077956795B795F795E7959F5FC1F7FE2BBF
:1056B000880F911D9695879597F90895F894FFCFD7
:1056C0004C0C4C0C550C550C570C550C550C550CE2
:1056D0004C0C4C0C5C0C550C550C5C0C1A15421502
:1056E0009515421595157515AD159515AA16B7168C
:1056F000171B171B8A1B8A1B4E1BE51B4E1B4E1BC1
:10570000141CEA1CFB1CFB1C302634268026912628
:105710009C26BB26BE26FF2620278E268E262B27DC
:0E5720002E273227572778277B277D27A127A2
:10572E000100000001191A1B1C1D1E1F2021220141
:10573E0002011105010DE00C0F051005010001021B
:10574E000202020606060909090909090F0F0F0FC1
:10575E000F0F1515151819191919191919191919CC
:10576E002324252525252525313332363534C69774
:10577E00F4F5F6669492F74022491701F500AC0055
:06578E00F3050C062C06D9
:00000001FF
